:020000040800F2
:100000001004002001010008DB0900086509000850
:10001000D90900086D0100089D0A000800000000D1
:10002000000000000000000000000000FF090008C0
:100030006F01000800000000FD090008010A000827
:100040001B0100081B0100081B0100081B01000820
:100050001B0100081B0100081B0100081B01000810
:100060001B0100081B0100081B0100081B01000800
:100070001B0100081B0100081B0100081B010008F0
:100080001B0100081B0100081B0100081B010008E0
:100090001B0100081B0100081B0100081B010008D0
:1000A0001B0100081B0100081B0100081B010008C0
:1000B0001B0100081B0100081B0100081B010008B0
:1000C0001B0100081B0100081B0100081B010008A0
:1000D0001B0100081B0100081B0100081B01000890
:1000E0001B0100081B0100081B010008DFF80CD0F1
:1000F00000F02AF800480047BD0A0008100400205C
:100100000648804706480047FEE7FEE7FEE7FEE7B1
:10011000FEE7FEE7FEE7FEE7FEE7FEE7550A00081A
:10012000ED000008D2B201E000F8012B491EFBD21D
:1001300070470022F6E710B513460A4604461946F2
:10014000FFF7F0FF204610BD064C074D06E0E068C3
:1001500040F0010394E8070098471034AC42F6D30E
:10016000FFF7C8FF000B0008200B0008FEE77047F0
:100170002DE9F84FDFF890A100220AF1040B144694
:1001800001274FF00F090BF1040E00BF0B6807FAAF
:1001900004F52B40AB4274D1DFF870C14E68A6EB7A
:1001A0000C0866452BD00DDC032E34D005DC36B3AD
:1001B000012E19D0022E2FD11BE0112E16D0122E97
:1001C0002AD119E0B8F5881F19D006DCB8F5803FB0
:1001D00015D0B8F5801F1FD111E0B8F5001F0ED063
:1001E000B8F5041F18D10AE0CA6815E0CA68121DE4
:1001F00012E0CA6808320FE0CA680C320CE08A6864
:100200002AB1012A4FF0080203D0456104E004221C
:1002100002E0056100E00022FF2B01D8064601E064
:1002200000F104064FEA840501D9A5F12005D6F8AE
:1002300000C009FA05F82CEA080C02FA05F54CEAA8
:10024000050CC6F800C04D68ED0057D5304DAE69BD
:1002500046F00106AE61AD6924F0030605F0010524
:1002600000952C4D06EB050CDCF80850A6074FEA6C
:10027000167809FA08F6B543274EB04202D1002697
:1002800010E03BE0254EB04201D101260AE0244EA9
:10029000B04201D1022605E0224EB04201D1032630
:1002A00000E0042606FA08F62E43CCF808604D68F4
:1002B000DAF80060ED03554601D51E4300E09E4389
:1002C0002E604D68DBF80060AD035D4601D51E432E
:1002D00000E09E432E604D68DEF80060ED0275463A
:1002E00001D51E4300E09E432E604D68AD020E4DC9
:1002F0002E6801D51E4300E09E432E60641C102C26
:10030000FFF444AFBDE8F88F000401400000111075
:10031000001002400000014000080140000C0140B4
:1003200000100140001401400C040140C2684A4022
:10033000C26070470AB1016170470904FBE7000021
:100340000148806870470000000000200248816872
:10035000027811448160704700000020074810B502
:10036000016841F010010160032000F067F80020EF
:1003700000F006F800F024F8002010BD0020024034
:1003800070B50D4D04464FF47A712878B1FBF0F04A
:100390000A490968B1FBF0F000F0D0FA48B9102C16
:1003A00007D200222146501E00F028F800206C6081
:1003B00070BD012070BD0000000000200C00002076
:1003C0000C4808B5816941F001018161816901F042
:1003D00001010091C16941F08051C161C06900F023
:1003E000805000900448416821F0E06141F00071C4
:1003F000416008BD0010024000000140F0B40E4B07
:100400001B680C46C3F30223C3F10705042D00D972
:100410000425191D072901D2002300E0DB1E012657
:1004200006FA05F1491E214099409E40761E16406D
:100430003143F0BC00F0D2BA0CED00E0064900F008
:10044000070208684FF6FF03184040EA0220034AFB
:1004500010430860704700000CED00E00000FA0552
:100460002DE9F047DFF8548105460E46D8F8000024
:1004700000F00700B0420CD2D8F8001021F00701BC
:100480003143C8F80010D8F8000000F00700B0426F
:100490006FD128684A4C810712D5400703D56068A0
:1004A00040F4E06060602878000703D5606840F49D
:1004B000605060606068A96820F0F00008436060E8
:1004C0002878C00744D06868012816D0216802281F
:1004D00016D0890700294CDA616821F00301014335
:1004E0006160FFF72DFF6968074641F288300129F6
:1004F0000ED00229814618D026E021688903E9E759
:100500008901E7E7FFF71CFFC11B494501D918E046
:1005100081466068C0F381000128F3D118E000BF74
:10052000FFF70EFFC11B49450BD86068C0F381007F
:100530000228F5D10CE000BFFFF702FFC11B4945BF
:1005400002D90320BDE8F087606810F00C0FF3D1EA
:10055000D8F80010404601F00701B1420BD90168FC
:1005600021F0070131430160006800F00700B0424C
:1005700001D00120E6E72878400705D56068E968E2
:1005800020F4E060084360602878000706D56068C2
:10059000296920F4605040EAC100606000F016F85C
:1005A0006168084AC1F30311515CC84006490860FC
:1005B0000020FFF7E5FE0020C4E700000020024015
:1005C00000100240F00A00080C00002012A185B0C3
:1005D0000FC98DE80F0014A0144A006804905168F8
:1005E000134801F00C03042B10D0082B0ED1C1F3DB
:1005F0008343C9031DF803000AD5516804AAC1F357
:100600004041515C0A4A5043B0FBF1F005B07047DD
:1006100008494843FAE700000203040506070809F1
:100620000A0B0C0D0E0F101001020000001002400A
:1006300000127A0000093D002DE9F84F04460078C9
:10064000B94DC00748D06868C0F38100012807D0C1
:100650006868C0F38100022809D16868C00306D524
:100660002868800338D5606800286FD034E060685F
:10067000B0F5803F0BD010B1B0F5A02F11D0286895
:1006800020F480302860286820F4802002E0286868
:1006900040F480302860606888B1FFF751FE06465C
:1006A00009E0286840F480202860F0E7FFF748FE62
:1006B000801B642875D828688003F7D50CE0FFF705
:1006C0003FFE064605E000BFFFF73AFE801B6428A8
:1006D000F0D828688003F7D42078944E80074FF034
:1006E00001094FF000083BD5686810F00C0F07D0E7
:1006F0006868C0F38100022809D16868C00306D485
:100700002868800714D5206901281FD110E02069CE
:10071000B0B1C6F80090FFF713FE074605E000BF32
:10072000FFF70EFEC01B0228C4D828688007F7D543
:100730002868616920F0F80040EAC10028600FE0F5
:10074000C6F80080FFF7FCFD074606E0E9E000BFC1
:10075000FFF7F6FDC01B022823D828688007F7D4CE
:10076000207800072CD57248A169D9B1C0F8009053
:10077000FFF7E6FD074604E0FFF7E2FDC01B022895
:100780000FD8686A8007F7D56A484FF4FA510068B5
:10079000B0FBF1F0009000BF0098411E0091FAD22A
:1007A0000EE080E0C0F80080FFF7CAFD074604E0D5
:1007B000FFF7C6FDC01B022875D8686A8007F7D40A
:1007C0002078400760D5E8690027C00008D4E869B0
:1007D00040F08050E861E869012700F08050009007
:1007E00055480168C90513D40168834641F48071F6
:1007F0000160FFF7A5FD824606E000BFFFF7A0FD00
:10080000A0EB0A0064284ED8DBF80000C005F5D53F
:10081000E06801280AD008B1052813D0286A20F022
:1008200001002862286A20F0040002E0286A40F0F3
:1008300001002862E06841F2883B98B1FFF780FD33
:1008400082460BE0286A40F004002862EEE700BF11
:10085000FFF776FDA0EB0A0159455AD8286A8007B0
:10086000F6D50CE0FFF76CFD824605E0FFF768FD6A
:10087000A0EB0A0159454CD8286A8007F6D41FB16D
:10088000E86920F08050E861E06988B36968C1F3E5
:100890008101022945D00228C6F8608004D0FFF704
:1008A0004FFD044638E034E0FFF74AFD074604E018
:1008B000FFF746FDC01B02282BD828688001F7D41B
:1008C000206AB0F5803F05D16868A16820F4003047
:1008D00008436860D4E908010843696821F4741189
:1008E00008436860C6F86090FFF72AFD044606E0FA
:1008F00015E000BFFFF724FD001B022809D8286877
:100900008001F7D50BE000BFFFF71AFD001B02289E
:1009100002D90320BDE8F88F28688001F4D40020B4
:10092000F8E70120F6E70000001002400000424214
:10093000800442420C0000200070004010B5401EB0
:10094000B0F1807F01D3012010BD4FF0E024606141
:100950000F21601700F042F80020A06107202061FD
:10096000002010BDFEE7000070B586B000241848D6
:100970000094019402940394816941F01001816113
:10098000816901F010010491816941F020018161C8
:10099000816901F020010491816941F004018161C4
:1009A00080690C4E00F004004FF4005504900022C2
:1009B00029463046FFF7BEFC01200095CDE9010431
:1009C0000220039069463046FFF7D2FB06B070BDA7
:1009D0000010024000100140FEE770470907090EB1
:1009E000002806DA00F00F0000F1E02080F8141D66
:1009F000704700F1E02080F800147047704770479E
:100A0000FFF7A4BC30B58FB028216846FFF791FBF3
:100A100014210AA8FFF78DFB01210804CDE900107D
:100A20000024029402250491CDE907504FF4E01010
:100A300009906846FFF700FE0F20CDE90A0568021D
:100A4000CDE90C4002210AA80E94FFF709FD0FB072
:100A500030BD00000D48016841F0010101604168AE
:100A60000B4A1140416001680A4A11400160016867
:100A700021F480210160416821F4FE0141604FF4BE
:100A80001F0181600449C0030860704700100240E4
:100A90000000FFF8FFFFF6FE08ED00E0FEE702E0D1
:100AA00008C8121F08C1002AFAD1704770470020F9
:100AB00001E001C1121F002AFBD17047FFF74EFC75
:100AC000FFF7A0FFFFF750FF00244FF47A754FF4B3
:100AD0000056064FFFF734FC011BA942FAD3044627
:100AE00031463846FFF722FCF4E7000000100140D1
:100AF00000000000000000000102030406070809CE
:100B0000200B000800000020100000009E0A0008D2
:100B1000300B00081000002000040000AE0A00089E
:100B200001000000100000000000000000A24A04C4
:04000005080000ED02
:00000001FF
